:020000040000FA
:0600000002011A0227C0F4
:03002B00022F6140
:03003300022F3861
:030053000228364A
:03006B00022E332F
:1000830002266FE5C754F84401F5C7790122000041
:100093000080FB120086B90003020104E479217891
:1000A30008B800028004F709D8FCE479297802B87B
:1000B30000028004F709D8FCE4900281781D7908D6
:1000C3008002F0A3D8FCD9FA781A90014A7A01BACF
:1000D30000028007E493A3F608DAF97A9D7B09907E
:1000E300014B789C79038015E493A3AD82AE838A98
:1000F300828B83F0A3AA82AB838D828E83D8E9D9C6
:10010300E77582997583AC740312012C758291751E
:100113008300740012012C75D00075813F7518811E
:10012300751902759F00020096C09FF59FE473D076
:100133009F22D083D082C09FE493C0E0740193C018
:10014300E0740293F59F2201FF0000B40000280031
:100153002800283075A000A000A000A0000008001F
:1001630008E001F000100010001000100010001053
:100173000050005000500010001000D00700000095
:100183000000000F0001000500307507001000019A
:100193000081FF00000000FFE4050206EA05FF02FC
:1001A300020208025000A0000000E80302F39001DD
:1001B3000000F58F02F790010000F4090217910186
:1001C3000000B30202F790010000F50902FF90015D
:1001D3000000C90202F790010000F6090201910133
:1001E3000000CB0202F790010000F7090203910817
:1001F3000000CC0202F790010000F809020591010A
:100203000000F909FF0100FF2002F390010000E064
:100213009002F7900100005D0A02079100000000C0
:100223000002FB900300001903140C140C140C14AB
:100233000C140C140C140C140C140C140C140C14BB
:100243000C140CF00E080FEA0E0A4A4642535F489C
:1002530065617274726174652056616C7565000026
:10026300104A4642535F4865617274726174652037
:1002730056616C7565204E6F746966696361746954
:100283006F6E000002F390010000E39002F790010B
:1002930000009E0A10158F030000400702F9900129
:1002A30000009F0A02F790010000B50A10358F0085
:1002B3000000410702FB90030000420702F990018E
:1002C3000000B60A17094A46425320486561727412
:1002D30020526174652053656E736F72051250006E
:1002E3002003020A000201060302C0C04A46425329
:1002F3005F48656172745261746553656E736F72A2
:1003030000F20F0000FFFF020202020202020202D9
:10031300010D000000100102F390010000E69002BD
:10032300F7900100005C0B020B91010000C807026B
:10033300F7900100005D0B020991010000918F020B
:10034300F7900100005E0B02ED90010000838F0225
:10035300F7900100005F0B02EB90010000CE8E02CC
:10036300F790010000600B02E990010000BC8E02CF
:10037300F790010000610B02FD90010000AA8E02BC
:10038300F790010000620B021591010000F28E024A
:10039300F790010000630B021391010000758F02B7
:1003A300F790010000640B021191010000650B013D
:1003B300E803053F100AFF00013075030201060040
:1003C300000000000000000000000000000000002A
:1003D3000000000000000000000000FFFF06008096
:1003E3000CE803120135DB9C03120135F29C031266
:1003F3000135239D031201355E9D03120135889D4E
:1004030003120135B29D03120135C99D0312013553
:10041300E09D03120135F79D03120135209E03125F
:100423000135339E03120135499E031201355C9E4B
:1004330003120135839E031201350198021201351F
:100443000599021201353D99021201356099021294
:1004530001356B99021201358E99021201359D9A6D
:1004630002120135729B02120135ED9B0212013516
:10047300759C02120135B09C02120135E79C0212F1
:100483000135759D021201354E9E02120135AE9E55
:1004930002120135B99E02120135389F021201354D
:1004A3003B9F021201353E9F02120135CD9F02127E
:1004B3000135D09F0212013500A0021201352AA096
:1004C3000212013518A102120135CAA10212013527
:1004D30024EC021201354CEC021201357AEC0212C3
:1004E3000135B1EC021201350FED021201355AED5F
:1004F30002120135A5ED02120135E5ED02120135B7
:100503002BEE0212013559EE0212013516EF0212DB
:10051300013520EF021201352DEF0212013560EF94
:10052300021201352CF00212013538F002120135A6
:1005330050F0021201355AF002120135E6A80312F7
:100543000135F4A8031201350CA90312013524A9BE
:10055300031201359EC2011201354AC3011201354E
:10056300C5C301120135E6C40112013522C50112CA
:100573000135CBC501120135B2C60112013516C8CA
:10058300011201356DC801120135EEC801120135A2
:10059300DEC9011201352BCA01120135B1CA01129C
:1005A3000135E3CA01120135F7CC0112013539CD0A
:1005B3000112013557CD01120135DACD0112013592
:1005C300AECE0112013576CF01120135B7D5021235
:1005D30001358AD60212013533D70212013586D787
:1005E3000212013536D802120135C2D80212013582
:1005F300AED902120135DDD902120135F0DA021249
:10060300013538DB021201350DDC0212013549DCFC
:100613000212013565DC02120135B6AB0312013556
:100623009A8303120135B08303120135D683031273
:100633000135F28403120135FC840312013531863E
:100643000312013529870312013506E2021201352F
:1006530036E30212013569E302120135B3E30212F4
:1006630001357AE502120135AFB20112013519B332
:100673000112013578B40112013588B40112013534
:10068300B5B4011201350CB501120135B5B501122E
:100693000135BCB60112013586B701120135E6B842
:1006A3000112013529B901120135CEB90112013503
:1006B3001BBA0112013541BA011201354FBC0112B7
:1006C300013554BC0112013559BE01120135A6BED4
:1006D3000112013519BF011201354CBF0112013559
:1006E300EEBF0112013597C001120135CFC00112CF
:1006F3000135D2C0011201351AC1011201355AC1A7
:1007030001120135B1C101120135B3900312013554
:10071300CB90031201351391031201352991031272
:10072300013570910312013584920312013511933F
:10073300031201355C9303120135902F001201352A
:100743009C2F00120135D72F001201351C300012E7
:100753000135DC3000120135623100120135C73139
:1007630000120135F331001201352C32001201352C
:100773006A34001201354E36001201353438001246
:100783000135773900120135C53B00120135D73CDD
:1007930000120135223E00120135323F00120135AD
:1007A3004F3F001201358A3F00120135AC3F001262
:1007B30001350F4000120135D04400120135654563
:1007C30000120135B64500120135DD450012013531
:1007D3002F46001201354D4600120135A74600127F
:1007E30001359047001201350649001201358A4947
:1007F30000120135E1F002120135EBF0021201356E
:100803002EF10212013549F102120135D9F102121A
:10081300013501F2021201353EF20212013575F281
:10082300021201359EF20212013513F30212013551
:1008330028F3021201353DF3021201356EF3021261
:10084300013582F302120135A7F302120135E1F3F8
:10085300021201350DF40212013545F4021201357D
:10086300C4F4021201350DF50212013537F50212F7
:10087300013562F502120135EDA403120135008042
:10088300021201352E80021201357C8102120135DC
:100893005C82021201357B8202120135F882021258
:1008A30001353B83021201359184021201355285D1
:1008B30002120135D987021201357A8802120135F5
:1008C3007089021201356D8A02120135C78B02123B
:1008D3000135528C021201357EFE02120135E7FE0C
:1008E300021201353BFF0212013562FF021201358C
:1008F30093FF0212013511FA021201357EFA021238
:100903000135C5FA02120135DDFB02120135D9FCAE
:1009130002120135BCFD021201357EB5021201350A
:10092300C0B50212013592B6021201356BB702123D
:10093300013565B80212013547B902120135B0B964
:100943000212013566BA02120135DABA0212013512
:1009530046BB021201356FBB02120135E9BB02121D
:10096300013582BC02120135E7BC02120135FCBC21
:100973000212013542BD021201355BBD021201357F
:10098300C0BD02120135C3BD02120135BA8D031277
:100993000135E28D03120135208E03120135DE8EFF
:1009A30003120135458F03120135618F031201359F
:1009B300898F03120135B98F03120135C88F0312D2
:1009C30001354590031201356B9003120135A8A23E
:1009D3000112013546A40112013561A60112013548
:1009E3009DA601120135CAA601120135AFA7011256
:1009F3000135F6A7011201353AA8011201354CA8B9
:100A0300011201358CA801120135B9A80112013573
:100A130004A90112013544A90112013572A9011279
:100A23000135C4A90112013554AA01120135F2ACF2
:100A33000112013508AF0112013546AF011201352C
:100A4300D7B0011201351CB10112013593B1011266
:100A53000135DDB10112013508B20112013505ACD2
:100A63000212013584AC0212013546B2021201357D
:100A730055B302120135BDB40212013554B5021249
:100A83000135145E001201355D5E001201358A5E88
:100A930000120135BD5E00120135CA5E0012013538
:100AA300D65E00120135E85E00120135CF5F0012F9
:100AB30001352D6000120135626000120135A56118
:100AC30000120135F2610012013516620012013580
:100AD300836200120135416300120135FA6300128B
:100AE3000135676400120135196500120135296566
:100AF30000120135B065001201356F660012013531
:100B03009C660012013515670012013572670012E9
:100B13000135BC67001201355268001201351D69A9
:100B230000120135D26900120135476A00120135FE
:100B3300A86A00120135126B001201354B6B0012CB
:100B43000135ED6B00120135FD6C001201353D6D71
:100B5300001201355A6D00120135796D001201350D
:100B6300C06D00120135E56D00120135126E0012E1
:100B730001358C6E00120135CD6E00120135F16F17
:100B830000120135A17000120135F8700012013511
:100B93006271001201357B71001201353BA2021212
:100BA30001358EA2021201359AA2021201356FA3FA
:100BB3000212013596A302120135D1A302120135A7
:100BC3003DA40212013579A402120135B2A4021226
:100BD3000135CAA4021201351FA50212013538A539
:100BE3000212013581A50212013594A502120135C5
:100BF300AEA502120135C4A502120135F7A60212F1
:100C030001353EA80212013540A9021201353AAA64
:100C130002120135852F00120135E0ED0112013575
:100C230010EE01120135D8F1011201352FF3011233
:100C33000135F8F30112013578F50112013549F652
:100C43000112013586F601120135A9F601120135AB
:100C5300E7F601120135F0F6011201353AF70112F8
:100C6300013544F701120135EEF701120135C7F8DA
:100C7300011201351BF9011201357DF9011201350C
:100C8300D0F901120135FFF9011201353CFA0112C5
:100C930001351B91011201358294011201358894AB
:100CA300011201350A9A01120135839E01120135A1
:100CB30059A2011201350080031201357680031217
:100CC30001358C8003120135CD8003120135078174
:100CD30003120135808103120135BB8103120135F3
:100CE3002E82031201356C820312013575820312C1
:100CF30001358182031201359D8203120135C882B9
:100D030003120135DE820312013507830312013515
:100D13006A830312013517FB011201352AFB011205
:100D2300013544FB011201356DFB01120135B0FBA6
:100D330001120135EFFB011201352DFC01120135C2
:100D430092FC01120135A7FC01120135B2FC01121C
:100D53000135BFFC01120135D6FC01120135E4FC5B
:100D630001120135EFFC01120135FBFC01120135C3
:100D73000EFD0112013519FD011201353CFD011271
:100D83000135E3FD01120135F3FD011201350DFEBD
:100D9300011201352AFE0112013546FE0112013509
:100DA3006BFE0112013576FE011201358BFE011235
:100DB30001359FFE0112013500FF0112013506FFC7
:100DC300011201350CFF0112013512FF0112013529
:100DD3002AFF011201355DFF01120135B2710012C4
:100DE3000135367200120135E57200120135447483
:100DF3000012013565760012013551770012013575
:100E0300867700120135A877001201355778001252
:100E130001354F7A00120135787A001201350A7BC9
:100E2300001201353C7B00120135497B001201356C
:100E3300A07B00120135C67B00120135337E001200
:100E43000135367F001201358E7F001201358FD1B7
:100E53000112013599D20112013580D301120135F6
:100E63008AD301120135ACD301120135B8D3011273
:100E7300013551D50112013580D5011201359CD6BA
:100E830001120135F5D6011201355BD80112013586
:100E93003AD90112013596D90112013503DA01124B
:100EA30001353EDA011201357DDA0112013536DDF5
:100EB3000112013550DD01120135DCDD011201356E
:100EC300EADD0112013543DE0112013551DE011263
:100ED3000135C4DE0112013528DF0112013572DF4D
:100EE30001120135D38C02120135F58C0212013542
:100EF3001B8F021201353092021201354893021200
:100F03000135FB9302120135DD9402120135959EE2
:100F130003120135BA9E031201352C9F03120135CA
:100F23003DCE0212013546CE021201354FCE0212DA
:100F3300013526CF02120135D7D0021201350DD16A
:100F43000212013547D1021201357DD1021201355A
:100F5300B7D102120135EBD10212013517D20212B9
:100F6300013560D2021201359AD202120135E3D261
:100F7300021201353BD30212013570D3021201353F
:100F8300CBD30212013505D40212013556D4021215
:100F930001358CD402120135C6D402120135F4D4C2
:100FA3000212013517D50212013573AA0312013556
:100FB3009FAA03120135FAAA0312013504AB0312E7
:100FC300013514AB03120135869303120135E09307
:100FD300031201351094031201357F940312013576
:100FE300269503120135DADC02120135D3DE021233
:100FF30001358AE0021201353AAC0312013517C6F6
:101003000212013521C6021201355FC602120135F3
:10101300A8C602120135E2C6021201353CC702120C
:1010230001355DC702120135FFC90212013508CA35
:101033000212013559CA0212013582CA0212013560
:101043008CCA02120135F8CA021201358CCB021286
:101053000135E0CB0212013516CC021201359DCCCD
:1010630002120135DDCC0212013515CD0212013514
:1010730027CD0212013546CD021201354FCD0212A2
:10108300013513CE021201350AA703120135DC9A8A
:1010930003120135129B03120135489B03120135DC
:1010A300A19C031201351EAB0312013534AB0312AD
:1010B30001353EAB0312013588AB031201358AF5C6
:1010C30002120135A3F50212013547F6021201356A
:1010D30087F602120135A0F602120135D4F6021288
:1010E300013521F70212013555F70212013597F741
:1010F3000212013597F90212013504FA0212013581
:10110300DAA10312013503A2031201352CA2031243
:101113000135C7A203120135DFA20312013521A352
:1011230003120135A98A03120135CE8A0312013550
:10113300FA8A031201353AAD03120135F14900125F
:101143000135554C00120135074E00120135F94E99
:10115300001201357E4F00120135FC4F001201359C
:101163002950001201354D5300120135C7530012A7
:101173000135B65400120135F054001201353055D3
:1011830000120135EA56001201353D5700120135B0
:10119300865700120135F457001201352658001204
:1011A30001353E5800120135535900120135635978
:1011B30000120135935A00120135B55A0012013558
:1011C300EB5A00120135905C00120135CF5C00121E
:1011D3000135EF5D00120135BDA903120135CEA91A
:1011E30003120135F1AC0312013530AD03120135A1
:1011F300DC7F0012013504A80312013514A8031281
:1012030001352CA803120135E0A80312013506A607
:10121300031201358BA603120135F1A60312013522
:101223003AA00312013563A003120135C9A00312CA
:101233000135E9A0031201353AA10312013593A147
:1012430003120135CDA103120135D0A103120135DB
:10125300338703120135488703120135B18803121E
:1012630001351D8903120135918903120135AB89BB
:1012730003120135C28903120135D58903120135E1
:10128300ED8903120135028A03120135238A031201
:101293000135748A031201352DE70212013544E743
:1012A30002120135BDE70212013596E8021201353B
:1012B30054EB02120135B9EB0212013510EC0212A4
:1012C3000135F87F00120135A79803120135329AD0
:1012D30003120135939A03120135D99A031201358A
:1012E30066A303120135BBA30312013529A403121C
:1012F300013599A4031201353C9603120135669614
:10130300031201353B97031201352F980312013560
:10131300E7BD02120135A4BE02120135DFBE02127F
:10132300013507BF0212013569BF02120135B5BF8E
:10133300021201350EC0021201359FC0021201359F
:10134300A1C1021201355EC302120135E0C30212CC
:10135300013545C4021201355CC4021201356CC566
:1013630002120135AAC502120135FBDF0112013554
:1013730085E3011201350DE50112013564E5011222
:10138300013583E50112013501E6011201359FE7BD
:101393000112013583E8011201356DEC01120135AB
:1013A3003DED01120135B7AD0312013581AD0312D5
:1013B3000135E3AD03120135DAFF01E06670100871
:1013C300A3E066700A08A3E066700408A3E066223F
:1013D300C3E7960809E7960809E7960809E79622FE
:1013E300C3E09608A3E09608A3E09608A3E096223C
:1013F300C008C3E096F50808A3E096420808A3E0F6
:1014030096420808A3E09645087001D3D008220845
:101413000808E630E711121C7B12142A080808C6D4
:101423004480C618181822181818E9799EC608CAE5
:10143300C608CBC608CCC6C370207996CACBCC707D
:1014430019798ECBCC70137986CC700EF9802ACAA9
:1014530033CACB33CBCC33CC331930E7F2CCCBCA42
:101463003350147004EA30E00DE4CA3ACACB3BCBE4
:10147300CC3CCC500209C3E913C6CC182313C6CB0A
:1014830018C6CA18C6F9221214CA20F01430E72B62
:1014930074FFFCFBFA747F8022E4FCFBFA74808007
:1014A3001AB48008BC00F2BB00EF800F50EBF9E4E4
:1014B300C39AFAE49BFBE49CFCE499C6CC18C6CB24
:1014C30018C6CA18C6F922E4C9C608CAC608CBC6D4
:1014D300D3330308CCC63392F0C3947F402E9418C1
:1014E3004019C9B90704CACBCC225025C309CA3352
:1014F300CACB33CBCC33CC33D9F422F4600DC9CC73
:10150300C313CB13CBCA13CAD9F6CC22E4FCFBFA20
:101513002214FCFBFA22E62618461846184622E750
:101523002719471947194722181818E6084608705B
:1015330009E626087005E633F4220822191919E78B
:101543000947097009E727097005E733F4220922DF
:10155300E6084608C3134608336002E633F422E77D
:10156300094709C3134709336002E733F42212150D
:1015730053601C1215626017121519700712152299
:101583007001D322C0D01215227006D0D0B322C36B
:101593002233D0D0501430E0F6C3E7960809E7961B
:1015A3000809E7960809E796B32220E0D5E69708ED
:1015B30009E6970809E6970809E697B32212155337
:1015C300601B12156260161215197007121522603E
:1015D3000CB322C0D01215227005D0D022C32233FF
:1015E300D0D0501330E0EBC3E7960809E79608091B
:1015F300E7960809E7962220E0E4E6970809E697CC
:101603000809E6970809E6972200121553604F125E
:1016130015626012E7548066F612152B70111215CD
:1016230022703B090909F4F618F618F618F6221287
:10163300153F701512151908080860EAE6447FF68D
:1016430018768018E4F618F622121519601612158A
:10165300227012E4F608F608F608E65480F6090943
:101663000918181822EAC0E0EBC0E0ECC0E0EDC0B6
:10167300E0E687F0A4FBACF008E687F0A42CFCE4DA
:1016830035F0FA1809E687F0A42C4B60027401CAFE
:1016930035F0FCE433FB09E687F0D2F7A42CCB3515
:1016A300F0FC1908E687F0A42BCC35F0FBE433FDFE
:1016B3000819E687F0D2E7A42C4ACB35F0CD3400E5
:1016C300FC09E687F0D2E7A42DCC35F0FDE433FA2C
:1016D3000918E687F0D2F7A42CCD35F0CA3400FC04
:1016E30008E687F0D2E7D2F7A42ACC35F07A7E2039
:1016F300E70B0ACB33CBCD33CDCC33CC33CB335009
:10170300147004ED30E00ED2F1E4CD3DCDCC3CCCF1
:101713003B5005DA05C2F1EB547FC63308E633923A
:10172300F0FBE73309E733C39A502D2B70190C0DE7
:101733004C4D70151806E608C333700D20F10AA24C
:10174300F013F6E418800B4024E4F630F0027680C0
:1017530018F618F618F68024D33B14501074FFA221
:10176300F013F6187680E418F618F6800FA2F0133B
:10177300F618E63303F618ECF618EDF6D0E0FDD0D4
:10178300E0FCD0E0FBD0E0FA22121553601D1215E5
:10179300627005191919801A12152B701F12153F43
:1017A300C37003E66733191919400718181822087C
:1017B300080874FFF618F618F618F62212153F609B
:1017C30017121522702192F0121519701950172053
:1017D300F014080808090909E7F61819E7F61819B3
:1017E300E7F61819E7F62212151960E6E869701F83
:1017F3000808E62480F608E436F618547FB47F0C14
:10180300E654806007F6E418F618F622181822E961
:10181300C6CC08C6CD08C6CE08C6CFC0E0E8C0E037
:10182300EAC0E0EBC0E009E9F809E7FA09E7FBE6FB
:10183300F918E6F8C3EC98ED99EE9AEBC2E7F5F0E8
:10184300EFC2E795F0500E600CEBCFFBEACEFAE95E
:10185300CDF9E8CCF8EAA2E7D2E7FAEB33FB13F5CC
:10186300F0EEA2E7D2E7FEEF33FFC5F013A2E730B5
:10187300E601B313C5F0C3C0E0C0F07F00C39BFB18
:10188300605E9418600F401D14601AD0E023F9D0F5
:10189300E0F802196D8AF0E9486003D2F0E4AFF092
:1018A300FAF9F8803BEB30E40D89F0EA6003D2F0FB
:1018B300E4AFF0F9CAF8EB30E30D88F0EF6002D241
:1018C300F0AFF0E4CAC9F8EB54076014FBC3EA13A2
:1018D300FAE913F9E813F8EF135002D2E0FFDBED56
:1018E300D0E0C0E030E739C3E49FFFF5F0EC98FCAB
:1018F30042F0ED99FD42F0EE9AFE42F0D0E0F9D0CD
:10190300E0F8E5F0607AE923F9EE20E742D80280B7
:1019130067C3EF33FFEC33FCED33FDEE33FE80EAB8
:10192300EC28FCED39FDEE3AFED0E023F9D0E0F8E7
:101933004002801BC3EE13FEED13FDEC13FCEF130B
:101943005002D2E0FF08B800067F7F74FF802EEFBD
:101953003350178CF020F00260100CBC000C0DBD4E
:1019630000080EBE000408E860DFE933E813FFEE69
:101973002313FE4F4D4C8008E95480FFE4FEFDFC29
:10198300EE33EF33F47004FCFD7E80D0E0FBD0E057
:10199300FAD0E0F8D0E0CFC618CEC618CDC618CC22
:1019A300C6F9221215537004181818221215627002
:1019B3000D74FFF61819F61819F61819F622E754DC
:1019C3008066F6121519700F12152270F014F608BE
:1019D300F608F608F680D1121522700CF608F60800
:1019E300768008E6447F80EC121542700C12152EA7
:1019F30060BFE65480F6E480BB12152E70051919FA
:101A03001980A5E869700C763F18768018F618F6E9
:101A1300E8F922E6CDC0E018ECC0E0E633CD33CDE3
:101A2300D313F6E719FCE7191933CC33C3947F407A
:101A33000ECD9D502408E65480F6E418F6800FF48A
:101A4300043D14501408E6447FF6187680E418F633
:101A530018F6D0E0FCD0E0FD22CCD313CCFD18E483
:101A6300C6CBC0E018E4C6CAC0E00808ED08C63318
:101A7300E613F618E433C675F003C3CA97CA09CB55
:101A830097CB199C40047D08802EBD0003021B4F99
:101A930016B6FF050606081618C3CA33CACB33CBDE
:101AA30033CA27CA09CB37CB193CC37D08803E18FC
:101AB3007D0820E75CC633C6CA33CACB33CB33DDDC
:101AC300F1D5F0EB30E77BCA97CA09CB974ACB191C
:101AD3009C406F4B7025E620E0218066187D08C38B
:101AE300CA97CA09CB97CB199CD3C633C6CA33CA84
:101AF300CB33CB3350C9DDE7D5F0E1D3E4C636C6EB
:101B030008C636C608C636C608C636C618181880AC
:101B130031C3CA97CA09CB97CB199CB34097C63335
:101B2300C6CA33CACB33CB33DD34D5F02EC6A2E0DD
:101B3300C640C8CA27CA09CB37194A70BECB3CB4C2
:101B430080B90808E63308E633601F181818D0E098
:101B5300FAD0E0FBD0E0FCD0E0FD22187D08CA27D4
:101B6300CA09CB37CB193CD3808013F618E4B67F70
:101B730011F618B6FF0EF618C60470D20808768060
:101B830080CAF618F618F680C5080808EAC0E0EB24
:101B9300C0E086F0E7A4FA180986F0E7A42AFA1849
:101BA3000986F0E7A42AFA180986F0E7A42AFA19A5
:101BB30086F0E7A4FBE5F02AFA190886F0E7A42BE0
:101BC300FBE5F03AFA190886F0E7A42BFBE5F03AB7
:101BD300FA18180986F0E7A4C5F02BFBE43AFA19C2
:101BE30008E7C5F0C6A426F6E5F03BFBE43AFA188D
:101BF30086F0E7A4F6E5F00826F6E43B08F6E43AB7
:101C030008F6D0E0FBD0E0FA22E4CFC0E0E4CEC097
:101C1300E0E4CDC0E0E4CCC0E075F020E626F608B1
:101C2300E633F608E633F608E633F6181818EC330D
:101C3300FCED33FDEE33FEEF33FFC3EC9709ED9775
:101C430009EE9709EF97191919400FFFEC97FC0953
:101C5300ED97FD09EE97FE191906D5F0BFECF709CC
:101C6300EDF709EEF709EFF7191919D0E0FCD0E009
:101C7300FDD0E0FED0E0FF22181818E4C396F60862
:101C8300E496F608E496F608E496F6226016080849
:101C930008C6C313C618C613C618C613C618C61378
:101CA300C6D5E0EA22700908080822601618181839
:101CB300C6C333C608C633C608C633C608C633C64A
:101CC300D5E0EA22E627F60809E637F60809E637FB
:101CD300F60809E637F622E026F608A3E036F6080A
:101CE300A3E036F608A3E036F622E026F008A3E0E8
:101CF30036F008A3E036F008A3E036F022C3E697F7
:101D0300F60809E697F60809E697F60809E697F64E
:101D130022C3E096F008A3E096F008A3E096F0084B
:101D2300A3E096F022E056F608A3E056F608A3E0F7
:101D330056F608A3E056F622E056F008A3E056F064
:101D430008A3E056F008A3E056F022E0F608A3E06B
:101D5300F608A3E0F608A3E0F622E6F008A3E6F00F
:101D630008A3E6F008A3E6F022E0FAA3E0FBA3E071
:101D7300FCA3E0FD22EAF0A3EBF0A3ECF0A3EDF06B
:101D830022E0F8A3E0F9A3E0FAA3E0FB22E8F0A342
:101D9300E9F0A3EAF0A3EBF022CAC0E0E6F0A3085F
:101DA300DAFAD0E0FA22CAC0E0E0A3C582CCC58249
:101DB300C583CDC583F0A3C582CCC582C583CDC5FC
:101DC30083DAE6D0E0CA22C3E498F8E499F9121E54
:101DD3000B8026C3E49AFAE49BFBE920E7E9121E91
:101DE3000BE498F8E499F922C3E498F8E499F9121A
:101DF3001E0BE498F8E499F9C3E49AFAE49BFB22F6
:101E0300EB20E7CFE920E7E0B90010BB0008E88A40
:101E1300F084F8AAF022E4FBC8FA22EB70227B10CC
:101E2300C833C8C933C9335007C39AC3DBF280062A
:101E33009A50012ADBEAC833F4C8C933F4C9FA2239
:101E430075F008E4C833C8C933C933C99AC99B506C
:101E530004C92AC93BD5F0ECFBC833F4C8E4C9FA7A
:101E630022600D08C6A2E713C618C613C6D5E0F351
:101E730022600C08C6C313C618C613C6D5E0F422E5
:101E8300700422600D18C6C333C608C633C6D5E036
:101E9300F41822251810AF08F518400C15198008FE
:101EA300F51840021519D2AF2200C0D0251810AF83
:101EB30008F518500C05198008F51850020519D2B9
:101EC300AFD0D0222518F58210AF08F518400C15B5
:101ED300198008F51840021519D2AF8519832225F8
:101EE30018F582E43519F583222518F8E43519F934
:101EF300222518FAE43519FB222518FCE43519FDCF
:101F030022E4732518C582C0E0E51934FFC583C0F8
:101F1300E0E518C3958224F810AF088583198582FC
:101F2300188008858319858218D2AFCEF0A3E520E7
:101F3300F0A37808E608F0A3DEFAEFF0A3E5812426
:101F4300FAF8E608F0A3E608F0A3E608F0A3080809
:101F5300E608F0A3E608F0A315811581D0E0FED0D2
:101F6300E0F8158115811581E8C0E0EEC0E0222577
:101F730018C582C0E0E51934FFC583C0E0E518C386
:101F8300958224F910AF0885831985821880088506
:101F93008319858218D2AFCEF0A3E520F0A3780889
:101FA300E608F0A3DEFAEFF0A3E58124FBF8E608E8
:101FB300F0A3E608F0A30808E608F0A3E608F0A3F8
:101FC30015811581D0E0FED0E0F815811581E8C0B8
:101FD300E0EEC0E022851983851882E0A3FEE0A32A
:101FE300F5207808E0A3F608DFFAE0A3FFE0A3C03A
:101FF300E0E0A3C0E0E0A3C0E0E0A3C0E0E0A3C052
:10200300E010AF08858218858319800885821885BA
:102013008319D2AFD083D082020132851983851808
:1020230082E0A3FEE0A3F5207808E0A3F608DFFA38
:10203300E0A3FFE0A3C0E0E0A3C0E0E0A3C0E0E0D2
:10204300A3C0E010AF0885821885831980088582B4
:1020530018858319D2AFD083D08222C0D02518C56A
:1020630082C0E0E51934FFC583C0E0E518C395825B
:1020730024F310AF08858319858218800885831996
:10208300858218D2AFC8F0A3E9F0A3EAF0A3EBF07E
:10209300A37908E709F0A3D8FAECF0A3EDF0A3EED7
:1020A300F0A3EFF0A3D0E0F0A3D0E0F0A3D0E0F0F2
:1020B300A3E520F0A3E5F0F0A32285198385188218
:1020C300E0C0E0A3E0F9A3E0FAA3E0FBA37808E013
:1020D300F608A3DFFAE0FCA3E0FDA3E0FEA3E0FF24
:1020E300A3E0C0E0A3E0C0E0A3E0F5D0A3E0F520C7
:1020F300A3E0A3F5F010AF08858319858218800843
:10210300858319858218D2AFD082D083D0E0F8D0EE
:10211300E03274048006740280027401C0E0F404A7
:10212300121EC7D0E0121D9C227404800474028026
:1021330000CCC0E0EDC0E0E518C39CCCAD19500164
:102143001D10AF068C188D1980068C188D19D2AF0F
:10215300121DA9D0E0FDD0E0FC22D083D082E9C0DB
:10216300E0E493A3C386F0C5F095F0F908E493A3E4
:1021730086F0C5F095F0700BE493A3C3994005E98D
:10218300048002A3E475F002A42582F582E5F0350C
:1021930083F583D0E0F9E493A3C0E0E493C0E022A5
:1021A300D083D082ECC0E0EDC0E0E493A3FCE493E1
:1021B300A3FDED4C600D1221EFEC24FFFCED34FF89
:1021C300FD80EFE493A3FCE493A3FDED4C600D12BB
:1021D300222EEC24FFFCED34FFFD80EFD0E0FDD098
:1021E300E0FCE493A3C0E0E493C0E022C0E0C3E4D6
:1021F3009396087401939618400FE4936670080849
:10220300740193661870007019A3A3C3E49396082E
:102213007401939618A3A3400DD0E0D0E0D0E00260
:1022230021DFA3A3A3A3A3A3D0E022C0E0C0F0882F
:10223300F0E4936670080874019366187000A8F0C0
:10224300A3A3700BD0F0D0E0D0E0D0E00221DFA355
:06225300A3D0F0D0E02250
:10225C0074F5121F72EAFEEBFFEE2434F8EF340033
:10226C00F988088909EE2435122388F8EE243712F0
:10227C002388F50AEC850AF0A4FCAAF0850AF0ED97
:10228C00A42AFDE82CF8E43DF97A257B00121E0BFC
:10229C00EA850882850983F074075AF87401B8003E
:1022AC00028004C333D8FCFBEA131313541FF8EE5B
:1022BC0028F8EF3400F9E8245DF582E912238B5BF2
:1022CC006003EA801CEE2436122388F5F0EA84A819
:1022DC00F0EE28F8EF3400F9E82438F582E91223FF
:1022EC008BF97F0402201E74F5121F72EAFEEBFFBD
:1022FC00EE2434122388C0E0EE2435F582EF34004E
:10230C00F583D0E0F08E828F83A3A3A3A3A3E0FA7E
:10231C00A3E0FB8E828F83A3A3A3A3A3A3A3E0FCC0
:10232C00A3E0FDECC39AF50AED9BF50BEE247FF5CB
:10233C0008EF3400F509850882F583E06401702B01
:10234C00EE2480F582EF3400F583122130122391B4
:10235C007402121EACE960137CDC7D04EEFAEFFB18
:10236C00120B3C850882850983E4F0AC0AAD0BEEB8
:10237C00FAEFFB12225C122E250222EEF582EF34CC
:10238C0000F583E022C082C083851882851983E022
:10239C00F8A3E0F9C3EA9CEB9D5010C3EC98ED99BF
:1023AC00401BC3EA98EB995014800EC3EA98EB9942
:1023BC004007C3EC98ED994004790180027900D074
:1023CC0083D08222EAC39CFAEB9DFB2274ED121F90
:1023DC00729003A2E064086005E06407702C9061C1
:1023EC00C8E060269003D0E0F874FF68601CE875C4
:1023FC00F003A4C8AAF02AF974D228FE740339FF9A
:10240C008E828F83A3A3A3E070057900022578EE5A
:10241C002468F510EF3400F511906060E0851082AF
:10242C00851183F0750A45750B0575080075090053
:10243C00E5D914F50EE5D95403F50F601CEE248292
:10244C00F50CEF3400F50D7403650F6058E50E6064
:10245C0013EE2467122388700B793DEEFAEFFB1212
:10246C000B6080A6900540E064016026850C828597
:10247C000D83E06004780480027800850E08E5087E
:10248C00C398FA95E0FB1209E08A088B09EA450922
:10249C007006120DBE022416850C82850D83E07029
:1024AC00048A0A8B0B78008016E5D9C0E08812E507
:1024BC000A2512F582E50B3400F583D0E0F008E82C
:1024CC00C3950E40E4850C82850D83E0602874FC76
:1024DC00250EF50E780A122119AC0EA90FEEFAEFA3
:1024EC00FB120C0E7402121EACE9700AAA08AB099E
:1024FC001212E60224657403650F6058850E0C7584
:10250C000D00780C122119AC0AAD0BAA08AB0912FC
:10251C000BD27402121EAC851082851183E0F87404
:10252C0080687005750C7F8002880CE50CF50A78C4
:10253C000A12211DE50FF50A780A12211DA90EAC0D
:10254C0008AD099003D0E0FA7B00120878740212EF
:10255C001EAC80139003A2E06408600BAC0AAD0BB8
:10256C00EEFAEFFB120CA4120DCA79017F0C0220BB
:10257C001E74F3121F7274FC121E96EAFEEBFF8996
:10258C0008A2AFE433F509C2AFEE2463F50AEF34C9
:10259C0000F50B8010AA0AAB0B120B8A1212E690F4
:1025AC0004E3E004F0850A82850B83E0F8A3E0F9EC
:1025BC00E849602FE82402FAE93400FBEA2402F52A
:1025CC000CEB3400F50D780C1221198A828B83E008
:1025DC00FCA3E0F9EEFAEFFB120B7E7402121EACB8
:1025EC00E960B29004E3E060579004E4E0F89004F2
:1025FC00E3E0C398500C7402650870449004E5E065
:10260C00603E8E828F83A3A3A3A3E08518828519D5
:10261C008312265C7402121EE2E812265C9004E21D
:10262C00E028F07402121EE2AC82AD83851882851C
:10263C001983AA82AB8379011208849004E3E4F035
:10264C00E509A2E092AF7404121EAC7F0602201EB4
:10265C00F0A3E4F09004E3E0F822000085218785E4
:10266C0022C622C0E074EF12205EA2AFE433FEC299
:10267C00AF759B00906182E0A2E05012E591A2E060
:10268C00500C7591FE7401652170031223D8E0A2E1
:10269C00E55051E591A2E5504B7591DF9003A2E016
:1026AC0064076005E0640870237401652170357956
:1026BC00019003D0E0FA75F003A4CAA8F028FB74CB
:1026CC00D22AFA74033BFB12257D8018E0640D704E
:1026DC00139003C4E004F064287002E4F07A00E084
:1026EC00F9120DD0906182E0A2E64003022796E534
:1026FC0091A2E640030227967591BF9003A2E06475
:10270C00057008120CE6120CF28003120CEC752109
:10271C0000120D5EE99003A3F07900120D52120A1B
:10272C00A67A017B009003A1E0F912105E90780369
:10273C00E064427055900544E014F0704DC2AF1245
:10274C00274E00782AD0E0F618D0E0F6E59F540723
:10275C0070057509FF800375097FC4C0E07829E610
:10276C00F50808E65509F509740B7808121E74D0A3
:10277C00E02508F8906270E0A2E740F8E8C33390D7
:10278C006272F0906270E0D2E0F0906181E0A2E3BE
:10279C005009E5E9A2E3500375E9F7A3E0A2E7507D
:1027AC0009E591A2E7500375917FEEA2E092AF7F0D
:1027BC00040220BDC0E0C0D0C082C083906183E021
:1027CC00A2E05009E5BFA2E0500375BFFEE0A2E114
:1027DC005009E5BFA2E1500375BFFDE0A2E250092C
:1027EC00E5BFA2E2500375BFFBE0A2E35009E5BFD1
:1027FC00A2E3500375BFF7E0A2E45009E5BFA2E4E1
:10280C00500375BFEFE0A2E55009E5BFA2E5500308
:10281C0075BFDFE0A2E65009E5BFA2E6500375BF25
:10282C00BFD083D082D0D0D0E032C0E074F212207E
:10283C005EE5A7A2E4500FE5A1A2E4500953A7EF6F
:10284C0075A1EF12288AE5A7A2E5500CE5A1A2E537
:10285C00500653A7DF75A1DFE5A7A2E15009E5A15A
:10286C00A2E1500375A1FDE5A7A2E2500CE5A1A2DF
:10287C00E2500653A7FB75A1FB7F010220BD74F843
:10288C00121F727521019003A2E0640670077A0092
:10289C007B00120CCEA2AFE433FED2AF9003A8E0C3
:1028AC00640170187A207B009003A1E0F91210E209
:1028BC007A207B009003A1E0F9121064906182E011
:1028CC00D2E6F0900541E0602185C6228016900387
:1028DC00A7E064017008E5C654F84405F5C653BE7C
:1028EC00FC1226687401652160E4EEA2E092AF7FD1
:1028FC000102201E8E238F2485822885832785182C
:10290C0082851983E0CEA3E0CF852882852783EBCF
:10291C00C9EAC8EDCBECCA75F010C3E833C8E9338B
:10292C00C9EA33CAEB33CBC3EA9EF526EB9FF525F8
:10293C00B35004AB25AA26EC33CCED33CDD5F0DA6D
:10294C00AE23AF242274E9121F7274FA121E96EA97
:10295C00FEEBFF8C088D099003A2E024F7C39405CD
:10296C005006751001022A7C120C448A0A8B0BEA61
:10297C00450B7003022A79120D048A0C8B0D120D73
:10298C0004EA650C7003EB650D60ECEEFCEFFD8565
:10299C001882851983AA82AB83120D0A850A828557
:1029AC000B83A3A3780C121D4E90903C780C121D37
:1029BC00288518828519837814121D4E90903C78C6
:1029CC0014121D28780C79141213D3501F780C791B
:1029DC0014121D00909094780C1213F34047850C40
:1029EC0010850D11850E12850F13804590909485DE
:1029FC0014108515118516128517137810790C1281
:102A0C001D0078101213F3501C7510007511007511
:102A1C00120075130178107914121D007810790CBE
:102A2C00121CC7800C7510017511007512007513FE
:102A3C000074097810121CA89090AC780C121D4EE2
:102A4C007810790C121C0C9003A2E06408600AE068
:102A5C0064066005E0640570209090907810121365
:102A6C00F350169090687810121CDA800C751000D8
:102A7C00751100751200751300850882850983781D
:102A8C0010121D5D7406121EAC7F1002201E74F70E
:102A9C00121F72120D1C90053FE0640170109062C1
:102AAC0045E4F0A3F053F4F343FE0C5390F3120CF3
:102ABC00BCE5C654804449F5C6E59E547F64497014
:102ACC00F8906185740FF090053DE0F47002A3E07E
:102ADC00602C75080175090090053DE07808121E00
:102AEC0083E508F4FAA3E0600814600A14600C8013
:102AFC000DEA52808008EA52908003EA52A07900D5
:102B0C007F0202201E74F7121F72E9FEEAFF7401A5
:102B1C006E700C7A807B009003A1E0F912105E902D
:102B2C002F88E493F46008E493F9120A888009531F
:102B3C00C680E59E547F70FA120CC290053FE0648B
:102B4C00017003120ABE90053DE0F47002A3E06030
:102B5C002A75080175090090053DE07808121E835E
:102B6C00AA08A3E0600814600A14600C800DEA4205
:102B7C00808008EA42908003EA42A0120C448A0842
:102B8C008B09A808A909E8496017E5E170FCE8245D
:102B9C0014F582E93400F583E0F874FF686002886C
:102BAC00E174016F700A7A019003A1E0F91210B27E
:102BBC00022B0C74F1121F728A088B098C0A8D0B74
:102BCC0090903C7808121D28740F121EE2780C129B
:102BDC001D4E90903C780C121D287808790C12131D
:102BEC00D390909450107808790C121D007808122C
:102BFC0013F34014800E780C7908121D00780C1217
:102C0C0013F350047901800279007F0802201E74AE
:102C1C00ED121F728A088B098C0A8D0B90903C78F0
:102C2C0008121D287413121EE2780C121D4E90907F
:102C3C003C780C121D28780C79081213D3401178AB
:102C4C0008790C121D00AA08AB09AC0AAD0B802246
:102C5C007510007511007512007513017810790C40
:102C6C00121D0078107908121CC7AA10AB11AC12F7
:102C7C00AD137F0C02201E90903C7808121D4E8ADA
:102C8C00828B837808121D3B7F0402201E74F51280
:102C9C001F728C828D837808121D4E8A828B8378EA
:102CAC0008121D14122CEDC3E098F0A3E099122C1D
:102CBC00DF401E90906C7808121D4E8A828B8378B0
:102CCC0008121CED8E828F83E02420F0A3E0344E9A
:102CDC00F080A4F08E828F83C3E09420A3E0944E06
:102CEC0022EA2404F8EB3400F9E8FEE9FF8C828D2B
:102CFC0083A3A3A3A3E0F8A3E0F98E828F832274AD
:102D0C00F5121F72E9FE9004F7E0FAA3E0FBEEC3A4
:102D1C0033F8E433F9746528F582748F39F583E060
:102D2C002AF508A3E03BF50978081221199090B414
:102D3C00121D6C1229007402121EAC8A088B098CAD
:102D4C000A8D0B74107808121C8FAA08AB097F042B
:102D5C0002201E74F1121F728A0C8B0D8C0E8D0FBB
:102D6C00740F121EE2E0FAA3E0FB7411121EE2E0F3
:102D7C00F508A3E0F5097808122119EA2401F508F1
:102D8C00EB3400F509E4F50AF50B780C7908121B05
:102D9C008C9090607808121D4E780C7908121B8C60
:102DAC00AA0CAB0DAC0EAD0F1229007402121EACA6
:102DBC008B09EA450960047A0180027A00EC2AFC4E
:102DCC00ED3400FD7413121EE2E0F8A3E0F9E8FE06
:102DDC00E9FFECF8EDF97A717B02121E0B88088979
:102DEC0009E4F50AF50B8E828F837808121D5DECD1
:102DFC00F8EDF97A717B02121E0B8A088B097405A7
:102E0C007808121E838E828F83A3A3A3A3E508F0F8
:102E1C00A3E509F07F0802201EC082C083E9906000
:102E2C0000F0D083D08222C0E074EB12205EA2AFFF
:102E3C00E433FED2AFE589A2E150121210FA9007EA
:102E4C0051EAF0A3EBF07A02790112129E9007512D
:102E5C00C08290074FE0F8A3E0F9758307D082E0B9
:102E6C00C398F508A3E099F5093395E0F50AF50B3D
:102E7C0078081214129007497808121D5D900749C2
:102E8C00780C121D4E9090807808121D4E780C799B
:102E9C0008121571506E900749780C121D4E9090C7
:102EAC00847808121D4E780C79081215C050557C88
:102EBC00107D008C088D0974027808121E837453DF
:102ECC002508F874073509F988088909E824FCF500
:102EDC0082E934FFF583121D8485088285098312EB
:102EEC001D90900749121D84900753121D90EC24DD
:102EFC00FF1CED34FFFDC3EC9401ED9400A2D265F0
:102F0C00D03350AF900751E0F8A3E0F990074FE8A9
:102F1C00F0A3E9F0758900C2C5751A00EEA2E09223
:102F2C00AF7F080220BDC2AF02000022C0E074F2E5
:102F3C0012205EA2AFE433FED2AFE58BA2E05003C9
:102F4C0012123E758B00C2E8751A00EEA2E092AF29
:102F5C007F010220BDC0E0C0D0E8C0E0E9C0E0E5E0
:102F6C00A8D2AFC2C7751A00A2E7A2E792AFD0E011
:102F7C00F9D0E0F8D0D0D0E032020132FFFFFFFFF1
:102F8C00FFFFFFFFC082C083E9900A5CF002321F92
:102F9C0074F7121F06E99002E1F07C197D037AFFA9
:102FAC007BFF1207CA9002E274FFF0A3F0A3E4F0D7
:102FBC00A3F079051207529002E1E0F91206747A37
:102FCC00E87B071209927F01021FD874F4121F06C6
:102FDC008A088B09EB548060309002E1E0F9121002
:102FEC00468A0A8B0BAE0AAF0BEE4F60138E828FA4
:102FFC0083E064B0700312076AEEFAEFFB12103430
:10300C00AA08E5096480FB80047A007B000231EE9B
:10301C0074F2121F0674FC121E96EAFEEBFFEE4FC2
:10302C0060387402121EE2EEF0A3EF123453ECF08F
:10303C00A3ED123453AA82AB8312066EE9F5087025
:10304C00737412121EE2124007E50A450B60658E7E
:10305C00828F831230CAEE4F700575080280557A44
:10306C00067B0012109A8A0C8B0DA80CA90DE8494E
:10307C007005750813803D88828983E41230D4A3CF
:10308C00A3EEF0A3EF1244A0E50AF0A3E50BF09039
:10309C0002E712315C9002E76017E0FCA3E08003CA
:1030AC00EAFCEBFD8C828D8312315C70F38C828D8B
:1030BC0083123F2CA9087404121EAC0246A2A3A3CF
:1030CC00A3A3E0FEA3E0FF22F0A3F0888289832271
:1030DC0074F2121F06890AE975F017A4FEAFF0907E
:1030EC0002E6E4F09002E412315C600A1210A09047
:1030FC0002E4E4F0A3F0EEFAEFFB12109A8A088BCC
:10310C0009EA4509602FEEFCEFFD790012101C90C6
:10311C0002E4E508F0A3E509F07B008008123146D3
:10312C00E4F0A3F00BEBC3950A40F2E50A9002E63B
:10313C00F07900800279130246A2EB75F017A4F81F
:10314C00A9F09002E4E028FAA3E0398A82F5832200
:10315C00123CC2EA4B2274F4121F06750800750962
:10316C0000740C121EE2124474FEE9FF800CE50898
:10317C002401F508E5093400F509C3E5089CE509C7
:10318C009D503285080A85090B7403780A121E8338
:10319C00EA250AF8EB350BF988828983A3A3A3A34C
:1031AC00A3A3124007EE650A7003EF650B70BFE82E
:1031BC00FAE9FB80047A007B00802774F4121F0666
:1031CC007900EAA2E0501B75081475099078081272
:1031DC0021197C047D007A5E7B0A12074C74021262
:1031EC001EAC7F04021FD8C082C0839002E712324B
:1031FC0026601C88828983A3A3E06A7003A3E06B1A
:10320C008882898370E8A3A3A3A3123CBE80047AAE
:10321C00007B00D083D082020132124775E849222C
:10322C0074EE121F0674FC121E96EAFEEBFF851854
:10323C0082851983E4F0A3F0EE2402123F10EE24F1
:10324C0005123441EE2404F50EEF123826E024FE6C
:10325C00603924FC604624FE605224FE605E24FE2D
:10326C00700302334624FE70030233BE24FE700347
:10327C000233CD24FE70030233DC24FC70030233D2
:10328C00EB24FE70030233FA0234379003007417F8
:10329C00F0A3E412345B1203EC02343785188285F8
:1032AC001983AC82AD8312077002340785188285AE
:1032BC001983AC82AD83120776023407850C08851E
:1032CC000D097402121EE2AC82AD83850882850959
:1032DC0083123CBE1206928A0C8B0DAC0CAD0DEC1D
:1032EC004D6042E4F50CF50D780C122119750C00AB
:1032FC00750D03780C122119750C01750D03780CE2
:10330C001221197408121EE21221307916123CB8DF
:10331C001207B27408121EACE9F50C700B123CB417
:10332C00120404800F750C01850882850983123400
:10333C0049123F2C850C0802340A7402121EE2ACAE
:10334C0082AD83850C82850D83123CBE1206928A57
:10335C00108B11AC10AD11EC4D6043850C82850DBA
:10336C0083A3A3122130751000751103781012215C
:10337C001975100175110378101221197408121E99
:10338C00E21221307916123CB81207B27408121EE0
:10339C00ACE9F509700B123CB412040A800F7509E4
:1033AC0001850C82850D83123449123F2C85090846
:1033BC00804C851882851983AC82AD8312077C8082
:1033CC003A851882851983AC82AD83120782802BD3
:1033DC00851882851983AC82AD83120788801C8581
:1033EC001882851983AC82AD8312078E800D8518E7
:1033FC0082851983AC82AD83120794E9F508E50840
:10340C0060298E828F83A3E06414601F850E8285F1
:10341C000F83E09003001234531247719003011292
:10342C003F2CE508A312345B1203E6EEFAEFFB1215
:10343C000710023E18F50CEF3400F50D22124775FB
:10344C0085188285198322F085188285198322F0CC
:10345C007C007D03850A82850B83123CC22274EEAC
:10346C00121F0674FC121E968A0A8B0B8C0E8D0F83
:10347C00EA2405F508EB3400F5097C157D0079008C
:10348C007A007B0312101CE5082402F50CE50912E6
:10349C0034448518828519838582108583117810B0
:1034AC00122119850882850983A3A3A3A312396E5F
:1034BC00122119E5082405F510E5093400F51178F9
:1034CC0010122119850C82850D83123CC812068CB2
:1034DC007406121EAC8A108B11AE10AF11E50A24C3
:1034EC0002F50AE50B123F13EE4F700302363080E3
:1034FC00177402121EE2123CBE88828983EAF0A382
:10350C00EBF0900300E004F0900300E0C39405405E
:10351C0003023630E4F510F51178101221197510EC
:10352C00E975110278101221197510EA75110278DB
:10353C00101221197406121EE21221307910EEFCC1
:10354C00EFFD123CB81207B27408121EACE9705EA3
:10355C00850882850983A3A3A3A3A3A3A3E0F89062
:10356C0002E9E068704812396E1221197CEA7D027A
:10357C00E5082408FAE5093400FB1210167402124F
:10358C001EACE960298E828F83A3A3A3A3123CBE39
:10359C00900300E0F51074027810121E837401255C
:1035AC0010F58274033511F583EAF0A3EBF0740285
:1035BC00121EE28582108583117810122119740273
:1035CC00121EE2122130850C82850D831247861261
:1035DC0006987404121EAC8A108B11AE10AF1190A9
:1035EC000300E0F51075110074027810121E83743C
:1035FC00002510F874033511F988828983A31231E0
:10360C005C70030234F4E82403F8E93400F9EE4F5B
:10361C0060030234FD8882898374FFF0A3F0900369
:10362C0000E004F0900300E0600A123CB41203F8CE
:10363C007900800B850882850983123F23790A0261
:10364C003E1874EA121F0674FE121E968C128D130D
:10365C00EA2405F50CEB1248F01230CE7508007513
:10366C000900EA2402F510EB3400F5118518828567
:10367C00198385820A85830B780A122119850C829D
:10368C00850D83A3A3A3A3123830122119E50C24B2
:10369C0005F50AE50D123F13780A122119850C82E3
:1036AC00850D8312478412068C7406121EAC8A0A8E
:1036BC008B0BEA450B70030237E1EA2404F50EEBA1
:1036CC001238261230CE8A828B83A3A3A3E0F9850D
:1036DC001082851183123CBE12067AE9F50960034B
:1036EC000237E1E4F514F51578141221197514E973
:1036FC0075150278141221197514EA7515027814CF
:10370C001221197406121EE21221307913AC0AAD83
:10371C000B851082851183123CBE1207B2740812FD
:10372C001EACE9F50960030237E19002E9E0F8E527
:10373C00087009E02402900301F08017900301E067
:10374C00FCE82402FAE43400FBEA6C7001EB600341
:10375C000237E5850882AA82123965941412395D04
:10376C005073850E82850F83E0C0E074022A1238F4
:10377C001DD0E0F00508850E82850F83A3E0C0E024
:10378C0085080A7402250A12381DD0E0F00508904D
:10379C0002E91238301221197CEA7D0285080A747C
:1037AC0002250AFA74033400FB1210047402121E70
:1037BC00AC9002E9E02508F50874FF6E700374FF05
:1037CC006F6012EE24010EEF3400FFE508C3941471
:1037DC005003023678E5086013123BA985108285E8
:1037EC001183123CBE1203FE79008014E5097003AC
:1037FC0075090A851282851383EEF0A3EFF0A909EF
:10380C007402121EAC7F0E021FD885080C740225A0
:10381C000CF58274033400F583223400F50F850E09
:10382C0082F583221244B32274EE121F0674FE1228
:10383C001E968C0E8D0FEA2405F50CEB1234447594
:10384C000B00900300E4F0F50AEA2402F508EB34CF
:10385C0000F5098049900300E0FA9002E9E0F812C3
:10386C003965941712395D400D900300E0F8741619
:10387C00C3989002E9F012396E1221197CEA7D028C
:10388C0074012AFA74033400FB1210047402121E21
:10389C00AC9002E9E0F8900300E028F0050AE50C92
:1038AC002416F582E50D123821E0F8E50AC398409C
:1038BC0003023946900300E0C39416507DE50AC319
:1038CC0033F8E433F9E50C28FEE50D39FF85188251
:1038DC00851983AC82AD838E828F83123CBE120617
:1038EC00928A108B11AC10AD11EC4D7005750B015B
:1038FC008043E4F510F51178101221197510E97553
:10390C00110278101221197510EA75110278101233
:10391C0021197406121EE21221307916850882854F
:10392C000983123CBE1207B27408121EACE9F50BE7
:10393C007003023861123F1F80107C007D038508E4
:10394C0082850983123CBE120410A90B7402023E3C
:10395C001AE99400C365D03322EA28F8E43400F95C
:10396C00E822E0F51075110078102274EA121F0697
:10397C0074FC121E968A0C8B0D8C128D13EA240586
:10398C00F50AEB123F13750800750900E50A2402CD
:10399C00F510E50B3400F5117402121EE285820E4F
:1039AC0085830F780E122119850A82850B83A3A3B8
:1039BC00A3A312445F122119E50A2405F50EE50BA9
:1039CC003400F50F780E122119851082851183129F
:1039DC003F19123CB812068C7406121EAC8A0E8B60
:1039EC000FAE0EAF0FE50C2402F50EE50D3400F50D
:1039FC000F80408882898374FFF005081238167492
:103A0C00FFF005089002E9E0F50C750D00780C123A
:103A1C0021197CEA7D0285080C7402250CFA7403CA
:103A2C003400FB1210047402121EAC9002E9E02563
:103A3C0008F508EE4F60718E828F83A3A3A3E0F983
:103A4C00850E82850F83123CBE12067AE9F509EECB
:103A5C002404123441E97044E4F514F51578141279
:103A6C0021197514E975150278141221197514EAC7
:103A7C0075150278141221197408121EE2122130E5
:103A8C007911EEFCEFFD850E82850F83123CBE1280
:103A9C0007B27408121EACE9F5096027850C828503
:103AAC000D83123B9F123F2CE5087003023B8512DD
:103ABC003BA9850E82850F83123CBE120416790039
:103ACC00023B9A850882AA82EA9002E97009E024F6
:103ADC0004900301F08022E0F8900301E0F514E873
:103AEC002404FCE43400FDEC65147001ED70C0128C
:103AFC003965941212395D50B6850C82850D83E0C0
:103B0C00C0E074022A12381DD0E0F00508850C8242
:103B1C00850D83A3E0C0E0123816D0E0123BBB85C4
:103B2C00820C85830D780C1221197404121EE2127A
:103B3C0021308510828511831247861206987404F1
:103B4C00121EAC8A0C8B0DAE0CAF0D85080C7402DA
:103B5C00250CF874033400F9EE4F70030239FF851D
:103B6C001882851983E088828983123BBBA3E0C04D
:103B7C00E0123816D0E0023A0DE509700375090A17
:103B8C00850A82850B83123B9F123F2CA909740472
:103B9C0002380E1247758512828513832290030119
:103BAC00E0F5F0E50884900300F07C007D0322F042
:103BBC0005088518828519832274EC121F0674FE81
:103BCC00121E968A088B098C0E8D0FEA2405FEEBCB
:103BDC003400FF851882851983AC82AD838E828F69
:103BEC0083123CBE1206928A0A8B0BEE24181234F6
:103BFC0041EA450B7003023C8F123E01503285188E
:103C0C0082851983123CBE1207A68A108B11EA45D5
:103C1C0011606B7912AC0AAD0B8508828509831291
:103C2C003CBE851082851183121F04E9F50A705879
:103C3C00E4F50AF50B780A1221198E828F83A3A35F
:103C4C00E0F50A780A122119EE2403123F10780AC3
:103C5C001221198E828F83123CC81207B874061277
:103C6C001EACE9F50A7021850C82850D83E0701F6E
:103C7C00850882850983123CBE12041C8011750ACA
:103C8C000E8009750A018004E50A6003123F1F8546
:103C9C000C82850D83E0600479008002A90A74020D
:103CAC00121EAC7F0C021FD87C007D03850A828516
:103CBC000B83123CC222E0FAA3E0FB22E0FCA3E05F
:103CCC00FD850882850983123CC22274EE121F0600
:103CDC0074FE121E968A088B098C0C8D0DEA240535
:103CEC00FEEB3400FF750E00851882851983AC82BB
:103CFC00AD838E828F83123CBE1206928A0A8B0B86
:103D0C00EA450B7003023DED123E015035851882D9
:103D1C00851983123CBE1207A68A0E8B0FEA450F3B
:103D2C00605E7912AC0AAD0B850882850983123C62
:103D3C00BE850E82850F83121F04E9F50E60030207
:103D4C003DF0850882850983124007AA0AFB1207F9
:103D5C009A8A108B11A810A911E849701E7AFF7B62
:103D6C00FF12079A8A108B11A810A911E849606CF0
:103D7C0088828983E50AF0A3E50BF0750A008007B9
:103D8C00750E0E805F050A9002E6E0FAE50AC39A0A
:103D9C00504AE50A75F017A4FAABF088828983A320
:103DAC00A3E02AFAA3E03BFB8A828B83123F19EC37
:103DBC004D70D2750A17750B00780A122119EEFC9A
:103DCC00EFFD1210047402121EACEEFCEFFD850820
:103DDC0082850983123CBE1204228014750E098060
:103DEC0003750E0112476D850C82850D83123F2CD5
:103DFC00A90E023958E5082402F508E5093400F546
:103E0C00098A828B83A3A3A3E0A2E5227404121E69
:103E1C00AC7F0A021FD874EC121F068C108D11EAAD
:103E2C002405F50CEB123444750F00EA2402F50A54
:103E3C00EB123F13850A82F583123CBE12079A8A55
:103E4C00088B09EA45097003023F05750E00807165
:103E5C00850C82850D83E06401704F8E828F83A365
:103E6C00A31221308E828F83A3A3A3A3E0F5127536
:103E7C0013007812122119EE2405F512EF3400F517
:103E8C00137812122119123CB81207B87406121EBC
:103E9C00ACE9F50F6014850C82850D83E4F01247B4
:103EAC006D851082851183123F2C7C177D00790063
:103EBC00EEFAEFFB12101C8E828F83E4F0A3F00558
:103ECC000E9002E6E0F8E50EC398501EE50E75F074
:103EDC0017A4F8A9F0850882850983A3A31248FAD0
:103EEC00123F19EC4D6003023E5C85088285098304
:103EFC0074FFF0A3F0E50F7006123CB8120428A969
:103F0C000F023CAFF50AEF3400F50B22A3E0FCA343
:103F1C00E0FD228E828F83124775850E82850F837A
:103F2C00E8F0A3E9F022C082C0839002E2E06A705C
:103F3C0003A3E06B70067AE27B0280047A007B00BC
:103F4C0002321FC082C08378008C828D83E06A703D
:103F5C0003A3E06B7010E875F003A4F8A9F0EC284B
:103F6C00FAED39FB8015088C828D83A3A3A3E06A3C
:103F7C007003A3E06B60DF7A007B0002321F74F6E3
:103F8C00121F061207648A828B83E58245837006B2
:103F9C007A007B008007A3A3A3A3123CBE02461E9B
:103FAC0074F2121F06E9FE740E121EE21240077420
:103FBC0010121EE212447F8C828D83E064027036F4
:103FCC00A312477BF50CA3E0F9A80C7402687003EC
:103FDC007429697021750C02750D00780C12211969
:103FEC007808122119780A122119EEF91207DC74DB
:103FFC0006121EAC800279010246A2E0F50AA3E08B
:10400C00F50B2274E8121F0674FB121E96E9851834
:10401C0082851983F08A168B17ECFEEDFF75100064
:10402C00741D121EE2124771741D121EE2123F2CF7
:10403C008E828F83A3A3A3E0A2E4502D741D121EC5
:10404C00E2123CBE1207A68A828B83E582458370FE
:10405C0003024450790AEEFCEFFDAA16AB17121FAF
:10406C0004E9F5106003024453741F121EE212445B
:10407C007F7421121EE21240077423121EE2E0F537
:10408C000EA3E0F50F8E828F83E06402600302437F
:10409C00FEA3124771850882850983A38582128548
:1040AC008313EE240612344188828983E0FAA3E05C
:1040BC00F9EA2400F514E439F51578141221A3015A
:1040CC000000280128F34007000228B841032825E6
:1040DC00410029EF4201291A430229BB420329EF6F
:1040EC004204299943FE43E50E450F60030243F950
:1040FC00850C82850D83124474FAE9FB8A828B83CA
:10410C00E0850A82850B831244AA1221198A828BBC
:10411C0083A3E0FCA3E0024383E50E450F6003029A
:10412C0043F9850A82850B837401F0124487850854
:10413C0082850983F07C007D008E828F83A3A3A3EC
:10414C00A3E02401FAA3E03400FB120692EA4B60D0
:10415C00418A828B83E02402F8850A82850B83E0F6
:10416C0028F0EA2404F8EB3400F988828983E0858E
:10417C0012828513831244BC1244AA1221198A821A
:10418C008B83123F18E5082403FAE5093400FB027F
:10419C004388850A82850B83E02404F07C047D002F
:1041AC007900AA12AB1312101C024453E50E450FF2
:1041BC0060030243F9124487FEA3E0FF850A82855F
:1041CC000B837404F0EE850882850983F0EF851269
:1041DC0082851383F07403121EE2AC82AD83EEFA77
:1041EC00EFFB1206928A0C8B0DEA450D700302420E
:1041FC009C8A828B83A3A31230CA7401121EE2859F
:10420C00820E85830F780E1221197405121EE2128C
:10421C0021307CFF7DFF1206987404121EAC8B0FAC
:10422C00EA450F7033850C82850D8312445F122191
:10423C0019850C82850D83A31221307C027D007AB6
:10424C00F57B901204C47404121EACE9700A74015C
:10425C00121EE274FFF0A3F08E828F83E064027072
:10426C0039750C02750D00780C1221198E828F8312
:10427C00123F18E5082404FAE5093400FB12100477
:10428C007402121EAC850A82850B83E0240280091D
:10429C007401121EE2EEF0A3EFF07401121EE21292
:1042AC004470F07401121EE2A31244680243F3E559
:1042BC000E450F60030243F9850C82850D83123F76
:1042CC0019AA16AB171207D0850A82850B837402C4
:1042DC00F0EA850882850983F0851282851383EBC9
:1042EC000243F6E50E450F60030243F9124487F8CA
:1042FC00A3E0F9850A82850B837402F0E8850882B5
:10430C00850983F0E98512828513830243F6850CB7
:10431C0082850D83123CBE120FFEEAFC8C82A882B1
:10432C00C3950EE4950F405FE8650E7002E50F70C3
:10433C00047C008022851882851983E0FAE50E2A18
:10434C00FAE50F3400FBC3EA98EB94005003E080CD
:10435C0005E50ECCC39CFCEC850A82850B83F08CA6
:10436C000A750B00780A122119850C82850D83E0E1
:10437C00250EFCA3E0350FFDAA08AB09121004743E
:10438C0002121EAC024453751007024453E50E454D
:10439C000F705A850C82850D83124771850A8285B0
:1043AC000B8374071230D61244681230D6A3E08502
:1043BC001282851383F0E82402FAE93400FB8A8226
:1043CC008B83124468124497124470A31244A012B7
:1043DC004479F0E82405F8E93400F98882898312DD
:1043EC004479A31244BCA3A3A3A3F0805A75100B69
:1043FC008055741D121EE2123CBE1207648A828B19
:10440C0083E5824583603D124771880C890DE84530
:10441C000D6031780E122119780A122119780812C0
:10442C0021197406121EE2E0F9EEFCEFFDAA16ABA0
:10443C0017850C82850D83121F047406121EACE9BD
:10444C00F510800375100EA9107405121EAC7F10A8
:10445C00021FD8E0F50E750F00780E22E085088259
:10446C00850983221244C622124775E8221244C6DB
:10447C00A3A322E0F508A3E0F50922850C82850DA3
:10448C0083E0F8A3E0F5838882E022A3A3F08A827C
:10449C008B83A322F088828983A3A3A3A322F08A0F
:1044AC00828B831244B322E0F50A750B00780A2242
:1044BC00F088828983A31244C622E085088285098C
:1044CC0083A3A32274EE121F0674FE121E968A0A90
:1044DC008B0BECFAEDFB7414121EE2E0F510A3E06A
:1044EC00F5117416121EE2E0FE7418121EE2E0F5CD
:1044FC000EA3E0F50F851882851983AC82AD83126B
:10450C0006928A0C8B0DEA450D6049851882851937
:10451C0083123CBE1207648A828B83E582458360DA
:10452C002FA3A312447FE50845096024780E1221BD
:10453C00197810122119EEF9AC0CAD0DAA0AAB0BBF
:10454C00850882850983121F047404121EAC800630
:10455C00790E8002790102395874F6121F0674FE26
:10456C00121E96740C121EE2124474851882851960
:10457C0083F07401121EE2E9F0E4F508F5097808FD
:10458C0012211975080278081221197404121EE2FE
:10459C0085820885830978081221191207B87406D8
:1045AC00121EAC7402121EAC806874F7121F06EA5D
:1045BC00FEEBFF89087C197D031207D0EA540260D8
:1045CC000BA908EEFAEFFB12068680027901022F86
:1045DC00D274F6121F0674FF6A700374FF6B7016A8
:1045EC008C828D83124623E4F08C828D83A3A3A34B
:1045FC00124623A380181207A08A088B09A808A9C1
:10460C0009E849600D8882898374FF1230D4A3A312
:10461C00E4F07F02021FD874FFF0A3F08C828D832C
:10462C00A3A32274F6121F061207A08A828B83E5BD
:10463C008245836006A3A3E0FA80027A007B0080A7
:10464C00D174F2121F068A088B09ECFEEDFF740E72
:10465C00121EE2E0F50A1207A08A0C8B0DA80CA919
:10466C000DE8497026EEFCEFFD7AFF7BFF1207A0E8
:10467C008A0C8B0DA80CA90DE849700479118016D1
:10468C0088828983E508F0A3E509F088828983A3F1
:10469C00A3E50AF079007F06021FD874EE121F06FC
:1046AC00EAFEEBFF8C088D09890C7414121EE212C1
:1046BC0047717416121EE2123CBE750D00E849607B
:1046CC00030247657402650C6003024760741212A2
:1046DC001EE212477BFCA3E0F9EC2400F50EE43952
:1046EC00F50FEAF4F8EBF4F9EC58F8E50F59F9E8A2
:1046FC0049705CE5082406F8ED3400F9880A890B4A
:10470C008882F5831247861207D08A108B11E50E2A
:10471C0065107004E50F65116042780E1221198541
:10472C000A82850B831247861207D67402121EACBE
:10473C00E9F50D7027780E122119850882850983F9
:10474C00A3A31247841207EE7402121EAC800D75DF
:10475C000D808008750D0D8003750D0BA90D023EA3
:10476C001D8E828F8312477522E0F8A3E0F9221286
:10477C00477588828983E022A3A3E0FCA3E0FDEEC9
:10478C00FAEFFB2274E8121F0674E7121E968518C6
:10479C0082851983EAF0A3EBF08C168D17890E75C0
:1047AC0008007509007431121EE2E0F512A3E0F561
:1047BC00137433121EE2E0F514A3E0F515743512F0
:1047CC001EE2E0F50FE50975F003A4F8A9F08518D1
:1047DC00828519831248FAE0F47003A3E0F47003A5
:1047EC000248DDEE2402F50CEF1248F0E0700302F3
:1047FC0048DD85160A85170B780A122119AC14AD01
:10480C0015AA12AB131207587402121EAC8A0A8B2B
:10481C000BEA450B70030248DDE4F510F511781036
:10482C001221197406121EE28582108583117810EC
:10483C001221197409121EE28582108583117810D9
:10484C00122119851282851383A3A3A3A3122130ED
:10485C007914AC0AAD0B8E828F83123CBE1207B258
:10486C007408121EACE97069850A82850B83A3A3B8
:10487C00A3A31247717402121EE2123F2C850C8204
:10488C00850D83E0A2E05018A90E7402121EE2AC52
:10489C0082AD838E828F83123CBE1206AAE9420837
:1048AC00850C82850D83E0A2E15026E50FF50A7890
:1048BC000A12211DA90E7403121EE2AC82AD838E66
:1048CC00828F83123CBE1206A47401121EACE94204
:1048DC00080509E509C3940250030247D1A90874DD
:1048EC00190244573400F50D850C82F58322E0281B
:1048FC00FEA3E039FF8E828F832274F2121F06EA28
:10490C00FEEBFF890B7401650B600E7402650B7076
:10491C006A79011209B0E97062EEFAEFFB12079A9C
:10492C008A088B09EA45096047750A00800B7C17D9
:10493C007D00790012101C050A9002E6E0F8E50AE9
:10494C00C3985021E50A75F017A4F8A9F0850882E0
:10495C00850983A3A3E028FAA3E039FB8A828B8321
:10496C0012322670C985088285098374FFF0A3F082
:10497C007C197D03EEFAEFFB1207CA0246A274F211
:10498C00121F068A088B09ECFEEDFF740E121EE254
:10499C00124007900A5CE0F4603D7A097B0012102B
:1049AC002EEA4B60328A828B8374B1F0A3E41244FA
:1049BC0099A3124497A3E508F0A3E5091249E6EE82
:1049CC00F0A3EF1249E6A3A3E50AF0A3E50BF090E0
:1049DC000A5CE0F912103A0246A2F08A828B83A399
:1049EC00A3A3A3A32274F0121F0674FA121E9689B5
:1049FC0008ECFEEDFF7509008A0A8B0B780A122170
:104A0C005D000410194C344A524A6C4A844AA24A3A
:104A1C00BA4ADD4AF54A094B334BB04BC14BD84B24
:104A2C00F34B194C194C494B740165086003024C4B
:104A3C00148E828F83E0F8C394034003024C14E875
:104A4C00900C04024BF0740265086003024C148E47
:104A5C00828F831253C1900C05E8F0A3E9024BF04E
:104A6C00740165086003024C14124C414003024C63
:104A7C0014E89007D1024BF0740165086003024CF6
:104A8C00148E828F83E0F8C394054003024C14E823
:104A9C009007D2024BF0740165086003024C1412AB
:104AAC004C414003024C14E89007D3024BF07410B5
:104ABC0065086003024C14750A10750B00780A1215
:104ACC0021197AD47B071210047402121EAC024C0A
:104ADC003A740165086003024C14124C4140030205
:104AEC004C14E89007E4024BF07401650860030273
:104AFC004C148E828F83E0900C08024BF07404658A
:104B0C00086003024C148E828F83780C121D4E9019
:104B1C0090B4780C1213F35003024C149007E678FF
:104B2C000C121D5D024C3AE96003024C1412063261
:104B3C00E9700512119C80569008798063740765A2
:104B4C00086003024C14750A06750B00780A1221D2
:104B5C00198E828F83A3AC82AD837402121EF41261
:104B6C00100A7402121EAC7C007D00AA18AB198EC0
:104B7C00828F83E0F9121148E9F50AC3940A4003C5
:104B8C00024C37120632E9700CA90A1211A27950A4
:104B9C00121364806E747A250AF582E43408F58366
:104BAC007401804074016508705E124C415059E8E4
:104BBC009007E5802F74016508704D8E828F83E01D
:104BCC00F8C3940A5042E8900C07801874016508E9
:104BDC0070368E828F83E0F874F928C3940A5028BB
:104BEC00E8900C09F0804774016508701B900878F8
:104BFC00E0F88E828F83E0900878F0E87030E06403
:104C0C0001702B12119080267509188021C3EA942B
:104C1C0027EB9400501574026508700F8E828F83F9
:104C2C001256E41204D0E9F5098003750902A909AA
:104C3C0074060250218E828F83E0F8C39402227492
:104C4C000E121EAC7F04021FD874F0121F0674B132
:104C5C00121E968C0E8D0F9090207420121EFC74D8
:104C6C0006121DA97420121EFC121148E9F50B74D2
:104C7C005F121EE2E0F50CE9C3940A4003024DD327
:104C8C0075F006E9A4F5097441121EFC7A0E742025
:104C9C002509F912135EE97009744D121EE2E0FE4B
:104CAC0080027E00900C04E064027005750801809F
:104CBC00037508007408650C70047422800274215A
:104CCC002509FF7C1B7D0079007426121EF412103E
:104CDC001CEEA2E0E433F50A7426121EFC7A1BEFDC
:104CEC00F912135EE970257440121EE2E024F9C338
:104CFC00940A5018780812211D7427121EFCA90A58
:104D0C00AA0EAB0F1205727401121EAC7C147D003E
:104D1C007900740C121EF412101C740C121EFC7A06
:104D2C001074242509F912135EE970307C1079FF98
:104D3C00740C121EF4121082E97021741C121EE203
:104D4C00AC82AD837A0474252509F912135E740CB8
:104D5C00121EFCA90AAA0EAB0F12055AAC18AD19FB
:104D6C007A0C7470250BF912135EE97049AA18AB12
:104D7C00191211787F00EF75F003A4F8A9F08518CB
:104D8C0082851983E58228F8E5831254E91256DEF0
:104D9C00601D88828983A3A3E0F508750900780853
:104DAC00122119AA0EAB0F1207BE7402121EAC0F01
:104DBC00EFC3940440C0EEA2E1500C9007D0E0F990
:104DCC00AA0EAB0F1207C47404650C7027900C0468
:104DDC00E06402701F7A009007E4E060010A90071B
:104DEC00D1E06004780480027800E84AF9AA0EAB9E
:104DFC000F12061A7900744F02502174F1121F061B
:104E0C0074F0121E968A0C8B0D8C088D097E0AE9A3
:104E1C00600C14600914603A146075024EED1211A6
:104E2C008AE9FEC3940A4003024EEDE50845097079
:104E3C0003024EED750A06750B00780A122119ACA7
:104E4C000CAD0DAA08AB091210047402121EAC02B0
:104E5C004EED7F00750A06750B00780A122119AC0D
:104E6C000CAD0DEF75F00EA4F8A9F074F228FA74DD
:104E7C000739FB1210167402121EACE970090FEF01
:104E8C00C3940A505C80CDEFFEC3940A5053804209
:104E9C007F00AC18AD197A1075F006EFA42423F935
:104EAC0012135EE9701C7C1079FFAA18AB19121052
:104EBC0082E9700EAC0CAD0DAA18AB1912053CE9C9
:104ECC0060090FEFC3940A501880C7EFFEC3940A11
:104EDC00500FE50845096009AA08AB09EEF9121153
:104EEC0084EEF97410121EAC7F07021FD874F412F2
:104EFC001F06E9FF7E1574FF6A700374FF6B702840
:104F0C00750800EFFC7A027B00A908121166E960B3
:104F1C00027E000508E508C3940A40E7EF604E7A6C
:104F2C00B47B111209C280451209A48A088B09EAC4
:104F3C00450960387C007D00EA2405FAE43509FB5C
:104F4C00850882850983A3A3A3A3E0F9121148E97C
:104F5C00C3940A500BEFFC7A027B001211667E00A0
:104F6C00EF600AAA08AB091211B480011EEEF90217
:104F7C004C5074F2121F068C088D097E15740E129B
:104F8C001EE2E0F50AA3E0F50B74FF6A700374FFF0
:104F9C006B701D7F00AC0AAD0BAA08AB09EFF912C0
:104FAC00116CE960027E000FEFC3940A503B80E560
:104FBC001209A48A828B83E5824583602B7C007D59
:104FCC0000E5822405FAE43583FBA3A3A3A3E0F94F
:104FDC00121148E9C3940A5010AC0AAD0BAA08ABE5
:104FEC000912116C7E0080011EEEF97F06021FD89B
:104FFC00C082C0839007EAEAF0A3EBF09007D0E000
:10500C00FC7D007A267B001204D09007D0E0F912C8
:10501C00073A025AE4121EAC7F08021FD874F01231
:10502C001F0674EC121E96EAFEEBFFEE240CF50C38
:10503C00E43FF50DEE2405F50EE43FF50FEE2409E3
:10504C00F50AE43FF50BEE2403F508E43FF5098E71
:10505C00828F83A3A3E024FA70030252E524FD702F
:10506C000302520314700302510014601024FD70EB
:10507C00030251DA14700302523A02533C125DE6F9
:10508C00604AE0F5838882E0F50EA3E0F50FE50EAB
:10509C00450F6038850C82850D83E0F50C780C1279
:1050AC00211DEE240BF582E43FF583E0F9850A829D
:1050BC00850B831256E40A0A0AAB09850E82850F0A
:1050CC0083121F047401121EAC02533C850A8285A4
:1050DC000B831221309007E6121D6C12056C7402C2
:1050EC00121EACE9700302533C7901850A82850BD0
:1050FC00830252B08E828F83A385820A85830BE054
:10510C0060030251BD850E82850F83E0A2E040034F
:10511C000251BD900884125DE960030251BD7C0E02
:10512C007D007900AA18AB1912101C850C82850D14
:10513C0083125AAFEA4B6010750C06750D00780C93
:10514C00122119EA2410801B125AA91209A4EA4B45
:10515C00700302533C750C06750D00780C12211966
:10516C00EA2405FCE43BFD7402121EF412100474D4
:10517C0002121EAC850E82850F83E0A2E25004D28F
:10518C00F08002C2F0A2F0E433F8740C121EE2E0DC
:10519C0048F0EEFCEFFDAA18AB1912117EE9701164
:1051AC007A027B009007D0E0F912105E790002536E
:1051BC003E125DE6700302533C12534370030253DC
:1051CC003C850A82850B83E0FC79010252D9125D81
:1051DC00E6700302533C125A6E890BE8450B7003C0
:1051EC0002533C8E828F83A3E0FC7902125AA98869
:1051FC0082850B830252E07C007D00EE2404FAE4ED
:10520C003FFB850882850983E0F9121148E9F8C350
:10521C00940A400302533CEE240AFCE43FFD7A045A
:10522C0075F006E8A42425F912135802533C125ABF
:10523C00A99007E5E06007900C07E0F98069900CF5
:10524C0004E070047905805F1209A48A0C8B0DA808
:10525C000CA90DE82404F50CE439F50D8E828F832E
:10526C00A3A3A3A3A3A3A3E0A2E05041E849700326
:10527C0002533C850C82850D83E0FE6030850A82EA
:10528C00850B83E054107025740E121EFCE8240567
:10529C00FAE439FBEEF9121148E97011790385082B
:1052AC0082850983125AAF12056602533CAC0EADCF
:1052BC000F850C82850D83E0F9125AA91211C012C8
:1052CC005DE6606C12534360677C007900125AA94A
:1052DC008E828F83121F048057120632E970519010
:1052EC000879E06401701512119C900879E4F07C47
:1052FC000AFDF97A7A7B0812101C802C750A00853D
:10530C000A08747A2508FEE43408FF8E828F83E045
:10531C006401700BA90A1211A28E828F83E4F0052E
:10532C000AE50AC3940A40D77950121364121190FB
:10533C0079017414025021125A72E8FEE9FFEE4F03
:10534C002274F4121F0674F2121E96EAFE8C097572
:10535C00F006E9A42420F508AC18AD197A0EF91260
:10536C00135EE9704B7C0679FFAA18AB19121082F8
:10537C00E9703D740C121EE21253C1E8F50BE509FD
:10538C006005EE420B8004EEF4520B850B82AA8270
:10539C00E86A7001E96015740C121EE2EAF0A3E4ED
:1053AC00F0AC18AD197A0EA90812135879018002C5
:1053BC007900024C4BE0F8A3E0F92274F2121F06BC
:1053CC0074E6121E9689098A0C8B0DECFEEDFF74A7
:1053DC000C121EFC7A0E75F006E9A42420F91213A7
:1053EC005EE960030254AC7C0679FF740C121EF467
:1053FC00121082E960030254AC74702509F508ACF4
:10540C0018AD197A0CF912135EE960030254A8AABC
:10541C0018AB19121178E50C450D701D7C0C790038
:10542C00AA18AB19121082E970727C0C7D007900FD
:10543C00AA18AB1912101C8051AC18AD19AA0CABE0
:10544C000D1211728A0A8B0BA80AA90BE84970225B
:10545C00EE4F604CAC18AD197A007B00121172EA59
:10546C00F8EBF9EA4B603988828983E50CF0A3E507
:10547C000DF0125525FAEE6A7001EF601FEEF04F39
:10548C00700888828983E4F0A3F0AA18AB19121172
:10549C0078AC18AD197A0CA908121358790180024E
:1054AC007900741A121EAC024FF774F7121F067FA4
:1054BC0000EF75F003A4F8A9F0EC28F8ED1254E90C
:1054CC00E06A7003A3E06B7006E8FAE9FB800B0F4F
:1054DC00EFC3940440DB7A007B0002582139F98831
:1054EC008289832274F7121F067E00EE75F003A4E6
:1054FC00F8A9F0EA28F8EB1254E9E0F4FCA3E0F484
:10550C00FD88828983ECF0A3EDF0125525F4F00EA2
:10551C00EEC3940440D5025821E82402F582E43904
:10552C00F583E02274F4121F0674F4121E96EAFE40
:10553C00EBFF8C0A8D0B900884125DE9704FEE4FD7
:10554C0070030256BFEC450B70030256BF12118A52
:10555C00E9900C0AF0C3940A40337508007C067974
:10556C00FFE50875F00EA4FAABF074EC2AFA740798
:10557C003BFB121082E960030256180508E508C3CC
:10558C00940A40D975090AE509900C0AF0900C0AA6
:10559C00E0C3940A40030256BF75F006E0A4F890ED
:1055AC000884125AAFEA4B7069EEFCEFFD7A0E7468
:1055BC002028F91213587C0C7D0079FFAA18AB191E
:1055CC0012101CAC18AD197A0C900C0AE02470F96E
:1055DC0012135875080E7509007808122119EEFC83
:1055EC00EFFD900C0AE075F00EA4F8A9F074EC280D
:1055FC00FA740739FB1210047402121EAC90088462
:10560C00E50AF0A3E50BF079000256C18508090202
:10561C0055931256C624061256D860197A1B74215B
:10562C0028F91213581256CF2406F582E438F58364
:10563C00E4F0A380D11256C6240A1256D860107A10
:10564C001B742228F91213581256CF240A80DB122D
:10565C0056C6240C1256D860107A10742328F912EE
:10566C0013581256CF240C80C11256C62408125659
:10567C00D860347A10742428F91213581256CF2497
:10568C0008F582E438F583E02410FCA3E03400FD37
:10569C007A0475F006900C0AE0A42425F91213582C
:1056AC001256CF24088083900878E060031211C64C
:1056BC001211BA7901740C024C4D900884E0F9A3D4
:1056CC00E0C922900884E0F8A3E0C822F582E4390E
:1056DC00F5831256E4EC4D22E0FCA3E0FD2274F4B9
:1056EC00121F0674F2121E96EAFEEBFFE9C3940A2F
:1056FC005004EE4F700479028034AC18AD197A0E58
:10570C0075F006E9A42420F912135EE9F508701C63
:10571C00750A06750B00780A1221197402121EFC08
:10572C00EEFAEFFB1210047402121EACA908024C24
:10573C004B74F4121F06EAFEEBFF750800750A069F
:10574C00750B00780A122119EEFCEFFDE50875F0D7
:10575C000EA4F8A9F074EC28FA740739FB12101691
:10576C007402121EACE96004A908800B0508E50858
:10577C00C3940A40C8790A024C5074F7121F06757C
:10578C000800E50875F00EA4F8A9F074EC28FE7476
:10579C000739FFEEFCEFFD7A0E75F006E508A42440
:1057AC0020F912135EE960297C067D0079FFEEFA80
:1057BC00EFFB12101C7C067D0079FFEE2CFAE43F07
:1057CC00FB12101CEE240CF582E43FF583E4F0A3ED
:1057DC00F00508E508C3940A40A8900878E0600337
:1057EC001211C61211BA802D74F7121F067E007F9B
:1057FC00007C0679FFEF75F00EA4FAABF074EC2A7E
:10580C00FA74073BFB121082E970010E0FEFC39480
:10581C000A40DEEEF97F01021FD874F7121F067ED4
:10582C0000EEF91211A20EEEC3940A5003E960F1D6
:10583C0080E374F3121F0674CB121E96E9FF900CD2
:10584C000AE06F701B7A017B009007D0E0F9121010
:10585C00647A027B009007D0E0F91210641211D226
:10586C0075F006EFA4FE74202EF5087427121EFCAA
:10587C007A0EA90812135EE960030259447C06797A
:10588C00FF7427121EF4121082E960030259447C43
:10589C000E7D0079FF7427121EF412101C7C1B7DE8
:1058AC000079FF740C121EF412101C7C0C7D007914
:1058BC00FFAA18AB1912101C7427121EFC7A0EA921
:1058CC0008121358E9F508740C121EFC7A1B74218B
:1058DC002EF9121358E9F50C740C121EFC7A1B7479
:1058EC00222EF9121358E9F50B740C121EFC7A10C7
:1058FC0074232EF9121358E9F509740C121EFC7A54
:10590C001074242EF9121358E9F50A740C121EFCAB
:10591C007A0474252EF9121358E9FEAC18AD197AD5
:10592C000C74702FF9121358E9F8E50C450B450966
:10593C00450A4E4842088003750800A908743512C0
:10594C001EAC7F05021FD874F7121F06E99007D012
:10595C00F012119002582174F4121F06EAFEEBFFAC
:10596C00548070030259FB9007D0E0F91210468A5C
:10597C00088B09EA4509607078018A828B83E024E0
:10598C0050603D14600624E1604F8052A3A3A3A392
:10599C00E0704E8A828B83A3A3A3A3A3A3A312219B
:1059AC00308A828B83A3A3A3A3A31256E48A828B8F
:1059BC0083A3A3125AAF1211547402121EAC80218D
:1059CC00A3A3A3A3E0641E701879008A828B83A31F
:1059DC00A3125AAF12114E8008121160E9F8E86058
:1059EC0007AA08AB09121034EEFAEF64808065EE5A
:1059FC00540260237C007D007A007B0012117EE94A
:105A0C0060117A017B009007D0E0F912105EEE6411
:105A1C0002803F7A028046EEA2E0503F125A7F127B
:105A2C005AAF1211CCE9602F125DE6601F125A6E4C
:105A3C0088088909E8450960137C007901125A7FAE
:105A4C00125AAF850882850983121F041211D2EEF7
:105A5C006401FAEFFB80087A0180027A007B000275
:105A6C004C50125A7222E0F5838882A3A3E0F8A36B
:105A7C00E0F922900884E0F8A3E0F5838882A3A3E0
:105A8C00A3227F02021FD8C082C0839007D0E0F906
:105A9C008A828B83A3125AAF1207C4803B8508827B
:105AAC00850983E0FAA3E0FB22C082C08374FF1255
:105ABC001E96121196E9C3940285188285198340AB
:105ACC000474028002740AF0AC18AD197A017905DD
:105ADC0012064A7401121EACD083D08202013274B9
:105AEC00F4121F0674E8121E968A088B09E9FE8CC4
:105AFC000A8D0B7C187D007900AA18AB1912101CAA
:105B0C00851882851983E508F0A3E509F09007D282
:105B1C00E0C0E07402121EE2D0E0F09007D3E0C0C7
:105B2C00E07403121EE2D0E0F0900C09E0C0E074C7
